{
	"ProvenanceRegistry.sol": {
		"ProvenanceRegistry": {
			"abi": [
				{
					"inputs": [
						{
							"internalType": "bytes32",
							"name": "contentHash",
							"type": "bytes32"
						}
					],
					"name": "HashAlreadyRegistered",
					"type": "error"
				},
				{
					"inputs": [],
					"name": "InvalidContentHash",
					"type": "error"
				},
				{
					"anonymous": false,
					"inputs": [
						{
							"indexed": true,
							"internalType": "bytes32",
							"name": "contentHash",
							"type": "bytes32"
						},
						{
							"indexed": true,
							"internalType": "address",
							"name": "registeredBy",
							"type": "address"
						},
						{
							"indexed": false,
							"internalType": "uint256",
							"name": "timestamp",
							"type": "uint256"
						}
					],
					"name": "AssetRegistered",
					"type": "event"
				},
				{
					"anonymous": false,
					"inputs": [
						{
							"indexed": true,
							"internalType": "bytes32",
							"name": "contentHash",
							"type": "bytes32"
						},
						{
							"indexed": false,
							"internalType": "bool",
							"name": "found",
							"type": "bool"
						},
						{
							"indexed": true,
							"internalType": "address",
							"name": "queriedBy",
							"type": "address"
						}
					],
					"name": "AssetVerified",
					"type": "event"
				},
				{
					"inputs": [
						{
							"internalType": "bytes32",
							"name": "contentHash",
							"type": "bytes32"
						}
					],
					"name": "anchorHash",
					"outputs": [],
					"stateMutability": "nonpayable",
					"type": "function"
				},
				{
					"inputs": [
						{
							"internalType": "bytes32",
							"name": "contentHash",
							"type": "bytes32"
						}
					],
					"name": "getRecord",
					"outputs": [
						{
							"components": [
								{
									"internalType": "bytes32",
									"name": "contentHash",
									"type": "bytes32"
								},
								{
									"internalType": "address",
									"name": "registeredBy",
									"type": "address"
								},
								{
									"internalType": "uint256",
									"name": "timestamp",
									"type": "uint256"
								},
								{
									"internalType": "bool",
									"name": "exists",
									"type": "bool"
								}
							],
							"internalType": "struct ProvenanceRegistry.ProvenanceRecord",
							"name": "",
							"type": "tuple"
						}
					],
					"stateMutability": "view",
					"type": "function"
				},
				{
					"inputs": [
						{
							"internalType": "bytes32",
							"name": "contentHash",
							"type": "bytes32"
						}
					],
					"name": "isRegistered",
					"outputs": [
						{
							"internalType": "bool",
							"name": "",
							"type": "bool"
						}
					],
					"stateMutability": "view",
					"type": "function"
				},
				{
					"inputs": [
						{
							"internalType": "bytes32",
							"name": "contentHash",
							"type": "bytes32"
						}
					],
					"name": "registerAsset",
					"outputs": [],
					"stateMutability": "nonpayable",
					"type": "function"
				},
				{
					"inputs": [],
					"name": "totalRegistered",
					"outputs": [
						{
							"internalType": "uint256",
							"name": "",
							"type": "uint256"
						}
					],
					"stateMutability": "view",
					"type": "function"
				},
				{
					"inputs": [
						{
							"internalType": "bytes32",
							"name": "contentHash",
							"type": "bytes32"
						}
					],
					"name": "verifyAsset",
					"outputs": [
						{
							"internalType": "bool",
							"name": "found",
							"type": "bool"
						},
						{
							"components": [
								{
									"internalType": "bytes32",
									"name": "contentHash",
									"type": "bytes32"
								},
								{
									"internalType": "address",
									"name": "registeredBy",
									"type": "address"
								},
								{
									"internalType": "uint256",
									"name": "timestamp",
									"type": "uint256"
								},
								{
									"internalType": "bool",
									"name": "exists",
									"type": "bool"
								}
							],
							"internalType": "struct ProvenanceRegistry.ProvenanceRecord",
							"name": "record",
							"type": "tuple"
						}
					],
					"stateMutability": "view",
					"type": "function"
				}
			],
			"devdoc": {
				"author": "Nexora",
				"events": {
					"AssetRegistered(bytes32,address,uint256)": {
						"params": {
							"contentHash": "The SHA-256 of the content, as bytes32.",
							"registeredBy": "The wallet that called anchorHash().",
							"timestamp": "Block timestamp of the registration."
						}
					},
					"AssetVerified(bytes32,bool,address)": {
						"params": {
							"contentHash": "The hash that was queried.",
							"found": "Whether the hash exists in the registry.",
							"queriedBy": "The wallet that performed the verification."
						}
					}
				},
				"kind": "dev",
				"methods": {
					"anchorHash(bytes32)": {
						"details": "The `contentHash` must be the keccak/SHA-256 of the original file buffer,      formatted as a bytes32 value. In the frontend, convert using:        `viem.toBytes(sha256HexString)` → then pass as bytes32. Reverts if:   - `contentHash` is bytes32(0) (zero hash — almost certainly a bug).   - The hash has already been registered (idempotency guard). Emits: {AssetRegistered}",
						"params": {
							"contentHash": "The 32-byte SHA-256 hash of the digital asset to register."
						}
					},
					"getRecord(bytes32)": {
						"params": {
							"contentHash": "The 32-byte SHA-256 hash to look up."
						},
						"returns": {
							"_0": "The ProvenanceRecord struct for the registered asset."
						}
					},
					"isRegistered(bytes32)": {
						"details": "Gas-cheaper than verifyAsset() when you only need a boolean.      Useful for on-chain composability (e.g., another contract checking      provenance before executing a transfer).",
						"params": {
							"contentHash": "The 32-byte SHA-256 hash to check."
						},
						"returns": {
							"_0": "True if the hash is registered, false otherwise."
						}
					},
					"registerAsset(bytes32)": {
						"params": {
							"contentHash": "The 32-byte SHA-256 hash to register."
						}
					},
					"verifyAsset(bytes32)": {
						"details": "This is a VIEW function — it does NOT write state and costs no gas      when called off-chain (e.g., via `viem.readContract()`).      It DOES emit an event to create an auditable verification trail.      NOTE: Events in view functions are not persisted. To log verifications,      call verifyAsset() as a non-view transaction, or handle off-chain.",
						"params": {
							"contentHash": "The 32-byte SHA-256 hash to look up."
						},
						"returns": {
							"found": "      True if the hash exists in the registry.",
							"record": "     The full ProvenanceRecord (zero-valued if not found)."
						}
					}
				},
				"title": "ProvenanceRegistry",
				"version": 1
			},
			"evm": {
				"assembly": "    /* \"ProvenanceRegistry.sol\":935:8878  contract ProvenanceRegistry {... */\n  mstore(0x40, 0x80)\n  callvalue\n  dup1\n  iszero\n  tag_1\n  jumpi\n  revert(0x00, 0x00)\ntag_1:\n  pop\n  dataSize(sub_0)\n  dup1\n  dataOffset(sub_0)\n  0x00\n  codecopy\n  0x00\n  return\nstop\n\nsub_0: assembly {\n        /* \"ProvenanceRegistry.sol\":935:8878  contract ProvenanceRegistry {... */\n      mstore(0x40, 0x80)\n      callvalue\n      dup1\n      iszero\n      tag_1\n      jumpi\n      revert(0x00, 0x00)\n    tag_1:\n      pop\n      jumpi(tag_2, lt(calldatasize, 0x04))\n      shr(0xe0, calldataload(0x00))\n      dup1\n      0x213681cd\n      eq\n      tag_3\n      jumpi\n      dup1\n      0x27258b22\n      eq\n      tag_4\n      jumpi\n      dup1\n      0x5b01afb5\n      eq\n      tag_5\n      jumpi\n      dup1\n      0x92677c69\n      eq\n      tag_6\n      jumpi\n      dup1\n      0x927416c0\n      eq\n      tag_7\n      jumpi\n      dup1\n      0xfb4c7bdb\n      eq\n      tag_8\n      jumpi\n    tag_2:\n      revert(0x00, 0x00)\n        /* \"ProvenanceRegistry.sol\":8623:8876  function getRecord(bytes32 contentHash)... */\n    tag_3:\n      tag_9\n      0x04\n      dup1\n      calldatasize\n      sub\n      dup2\n      add\n      swap1\n      tag_10\n      swap2\n      swap1\n      tag_11\n      jump\t// in\n    tag_10:\n      tag_12\n      jump\t// in\n    tag_9:\n      mload(0x40)\n      tag_13\n      swap2\n      swap1\n      tag_14\n      jump\t// in\n    tag_13:\n      mload(0x40)\n      dup1\n      swap2\n      sub\n      swap1\n      return\n        /* \"ProvenanceRegistry.sol\":8139:8264  function isRegistered(bytes32 contentHash) external view returns (bool) {... */\n    tag_4:\n      tag_15\n      0x04\n      dup1\n      calldatasize\n      sub\n      dup2\n      add\n      swap1\n      tag_16\n      swap2\n      swap1\n      tag_11\n      jump\t// in\n    tag_16:\n      tag_17\n      jump\t// in\n    tag_15:\n      mload(0x40)\n      tag_18\n      swap2\n      swap1\n      tag_19\n      jump\t// in\n    tag_18:\n      mload(0x40)\n      dup1\n      swap2\n      sub\n      swap1\n      return\n        /* \"ProvenanceRegistry.sol\":5729:6481  function registerAsset(bytes32 contentHash) external {... */\n    tag_5:\n      tag_20\n      0x04\n      dup1\n      calldatasize\n      sub\n      dup2\n      add\n      swap1\n      tag_21\n      swap2\n      swap1\n      tag_11\n      jump\t// in\n    tag_21:\n      tag_22\n      jump\t// in\n    tag_20:\n      stop\n        /* \"ProvenanceRegistry.sol\":4885:5495  function anchorHash(bytes32 contentHash) external {... */\n    tag_6:\n      tag_23\n      0x04\n      dup1\n      calldatasize\n      sub\n      dup2\n      add\n      swap1\n      tag_24\n      swap2\n      swap1\n      tag_11\n      jump\t// in\n    tag_24:\n      tag_25\n      jump\t// in\n    tag_23:\n      stop\n        /* \"ProvenanceRegistry.sol\":2333:2363  uint256 public totalRegistered */\n    tag_7:\n      tag_26\n      tag_27\n      jump\t// in\n    tag_26:\n      mload(0x40)\n      tag_28\n      swap2\n      swap1\n      tag_29\n      jump\t// in\n    tag_28:\n      mload(0x40)\n      dup1\n      swap2\n      sub\n      swap1\n      return\n        /* \"ProvenanceRegistry.sol\":7447:7696  function verifyAsset(bytes32 contentHash)... */\n    tag_8:\n      tag_30\n      0x04\n      dup1\n      calldatasize\n      sub\n      dup2\n      add\n      swap1\n      tag_31\n      swap2\n      swap1\n      tag_11\n      jump\t// in\n    tag_31:\n      tag_32\n      jump\t// in\n    tag_30:\n      mload(0x40)\n      tag_33\n      swap3\n      swap2\n      swap1\n      tag_34\n      jump\t// in\n    tag_33:\n      mload(0x40)\n      dup1\n      swap2\n      sub\n      swap1\n      return\n        /* \"ProvenanceRegistry.sol\":8623:8876  function getRecord(bytes32 contentHash)... */\n    tag_12:\n        /* \"ProvenanceRegistry.sol\":8710:8733  ProvenanceRecord memory */\n      tag_35\n      tag_36\n      jump\t// in\n    tag_35:\n        /* \"ProvenanceRegistry.sol\":8757:8766  _registry */\n      0x00\n        /* \"ProvenanceRegistry.sol\":8757:8779  _registry[contentHash] */\n      0x00\n        /* \"ProvenanceRegistry.sol\":8767:8778  contentHash */\n      dup4\n        /* \"ProvenanceRegistry.sol\":8757:8779  _registry[contentHash] */\n      dup2\n      mstore\n      0x20\n      add\n      swap1\n      dup2\n      mstore\n      0x20\n      add\n      0x00\n      keccak256\n        /* \"ProvenanceRegistry.sol\":8757:8786  _registry[contentHash].exists */\n      0x03\n      add\n      0x00\n      swap1\n      sload\n      swap1\n      0x0100\n      exp\n      swap1\n      div\n      0xff\n      and\n        /* \"ProvenanceRegistry.sol\":8749:8830  require(_registry[contentHash].exists, \"ProvenanceRegistry: hash not registered\") */\n      tag_38\n      jumpi\n      mload(0x40)\n      0x08c379a000000000000000000000000000000000000000000000000000000000\n      dup2\n      mstore\n      0x04\n      add\n      tag_39\n      swap1\n      tag_40\n      jump\t// in\n    tag_39:\n      mload(0x40)\n      dup1\n      swap2\n      sub\n      swap1\n      revert\n    tag_38:\n        /* \"ProvenanceRegistry.sol\":8847:8856  _registry */\n      0x00\n        /* \"ProvenanceRegistry.sol\":8847:8869  _registry[contentHash] */\n      0x00\n        /* \"ProvenanceRegistry.sol\":8857:8868  contentHash */\n      dup4\n        /* \"ProvenanceRegistry.sol\":8847:8869  _registry[contentHash] */\n      dup2\n      mstore\n      0x20\n      add\n      swap1\n      dup2\n      mstore\n      0x20\n      add\n      0x00\n      keccak256\n        /* \"ProvenanceRegistry.sol\":8840:8869  return _registry[contentHash] */\n      mload(0x40)\n      dup1\n      0x80\n      add\n      0x40\n      mstore\n      swap1\n      dup2\n      0x00\n      dup3\n      add\n      sload\n      dup2\n      mstore\n      0x20\n      add\n      0x01\n      dup3\n      add\n      0x00\n      swap1\n      sload\n      swap1\n      0x0100\n      exp\n      swap1\n      div\n      0xffffffffffffffffffffffffffffffffffffffff\n      and\n      0xffffffffffffffffffffffffffffffffffffffff\n      and\n      0xffffffffffffffffffffffffffffffffffffffff\n      and\n      dup2\n      mstore\n      0x20\n      add\n      0x02\n      dup3\n      add\n      sload\n      dup2\n      mstore\n      0x20\n      add\n      0x03\n      dup3\n      add\n      0x00\n      swap1\n      sload\n      swap1\n      0x0100\n      exp\n      swap1\n      div\n      0xff\n      and\n      iszero\n      iszero\n      iszero\n      iszero\n      dup2\n      mstore\n      pop\n      pop\n      swap1\n      pop\n        /* \"ProvenanceRegistry.sol\":8623:8876  function getRecord(bytes32 contentHash)... */\n      swap2\n      swap1\n      pop\n      jump\t// out\n        /* \"ProvenanceRegistry.sol\":8139:8264  function isRegistered(bytes32 contentHash) external view returns (bool) {... */\n    tag_17:\n        /* \"ProvenanceRegistry.sol\":8205:8209  bool */\n      0x00\n        /* \"ProvenanceRegistry.sol\":8228:8237  _registry */\n      0x00\n        /* \"ProvenanceRegistry.sol\":8228:8250  _registry[contentHash] */\n      0x00\n        /* \"ProvenanceRegistry.sol\":8238:8249  contentHash */\n      dup4\n        /* \"ProvenanceRegistry.sol\":8228:8250  _registry[contentHash] */\n      dup2\n      mstore\n      0x20\n      add\n      swap1\n      dup2\n      mstore\n      0x20\n      add\n      0x00\n      keccak256\n        /* \"ProvenanceRegistry.sol\":8228:8257  _registry[contentHash].exists */\n      0x03\n      add\n      0x00\n      swap1\n      sload\n      swap1\n      0x0100\n      exp\n      swap1\n      div\n      0xff\n      and\n        /* \"ProvenanceRegistry.sol\":8221:8257  return _registry[contentHash].exists */\n      swap1\n      pop\n        /* \"ProvenanceRegistry.sol\":8139:8264  function isRegistered(bytes32 contentHash) external view returns (bool) {... */\n      swap2\n      swap1\n      pop\n      jump\t// out\n        /* \"ProvenanceRegistry.sol\":5729:6481  function registerAsset(bytes32 contentHash) external {... */\n    tag_22:\n        /* \"ProvenanceRegistry.sol\":5958:5959  0 */\n      0x00\n        /* \"ProvenanceRegistry.sol\":5950:5960  bytes32(0) */\n      0x00\n      shl\n        /* \"ProvenanceRegistry.sol\":5935:5946  contentHash */\n      dup2\n        /* \"ProvenanceRegistry.sol\":5935:5960  contentHash == bytes32(0) */\n      sub\n        /* \"ProvenanceRegistry.sol\":5931:6014  if (contentHash == bytes32(0)) {... */\n      tag_43\n      jumpi\n        /* \"ProvenanceRegistry.sol\":5983:6003  InvalidContentHash() */\n      mload(0x40)\n      0x68e1d61b00000000000000000000000000000000000000000000000000000000\n      dup2\n      mstore\n      0x04\n      add\n      mload(0x40)\n      dup1\n      swap2\n      sub\n      swap1\n      revert\n        /* \"ProvenanceRegistry.sol\":5931:6014  if (contentHash == bytes32(0)) {... */\n    tag_43:\n        /* \"ProvenanceRegistry.sol\":6027:6036  _registry */\n      0x00\n        /* \"ProvenanceRegistry.sol\":6027:6049  _registry[contentHash] */\n      0x00\n        /* \"ProvenanceRegistry.sol\":6037:6048  contentHash */\n      dup3\n        /* \"ProvenanceRegistry.sol\":6027:6049  _registry[contentHash] */\n      dup2\n      mstore\n      0x20\n      add\n      swap1\n      dup2\n      mstore\n      0x20\n      add\n      0x00\n      keccak256\n        /* \"ProvenanceRegistry.sol\":6027:6056  _registry[contentHash].exists */\n      0x03\n      add\n      0x00\n      swap1\n      sload\n      swap1\n      0x0100\n      exp\n      swap1\n      div\n      0xff\n      and\n        /* \"ProvenanceRegistry.sol\":6023:6124  if (_registry[contentHash].exists) {... */\n      iszero\n      tag_44\n      jumpi\n        /* \"ProvenanceRegistry.sol\":6101:6112  contentHash */\n      dup1\n        /* \"ProvenanceRegistry.sol\":6079:6113  HashAlreadyRegistered(contentHash) */\n      mload(0x40)\n      0x65fe531700000000000000000000000000000000000000000000000000000000\n      dup2\n      mstore\n      0x04\n      add\n      tag_45\n      swap2\n      swap1\n      tag_46\n      jump\t// in\n    tag_45:\n      mload(0x40)\n      dup1\n      swap2\n      sub\n      swap1\n      revert\n        /* \"ProvenanceRegistry.sol\":6023:6124  if (_registry[contentHash].exists) {... */\n    tag_44:\n        /* \"ProvenanceRegistry.sol\":6159:6339  ProvenanceRecord({... */\n      mload(0x40)\n      dup1\n      0x80\n      add\n      0x40\n      mstore\n      dup1\n        /* \"ProvenanceRegistry.sol\":6204:6215  contentHash */\n      dup3\n        /* \"ProvenanceRegistry.sol\":6159:6339  ProvenanceRecord({... */\n      dup2\n      mstore\n      0x20\n      add\n        /* \"ProvenanceRegistry.sol\":6243:6253  msg.sender */\n      caller\n        /* \"ProvenanceRegistry.sol\":6159:6339  ProvenanceRecord({... */\n      0xffffffffffffffffffffffffffffffffffffffff\n      and\n      dup2\n      mstore\n      0x20\n      add\n        /* \"ProvenanceRegistry.sol\":6281:6296  block.timestamp */\n      timestamp\n        /* \"ProvenanceRegistry.sol\":6159:6339  ProvenanceRecord({... */\n      dup2\n      mstore\n      0x20\n      add\n        /* \"ProvenanceRegistry.sol\":6324:6328  true */\n      0x01\n        /* \"ProvenanceRegistry.sol\":6159:6339  ProvenanceRecord({... */\n      iszero\n      iszero\n      dup2\n      mstore\n      pop\n        /* \"ProvenanceRegistry.sol\":6134:6143  _registry */\n      0x00\n        /* \"ProvenanceRegistry.sol\":6134:6156  _registry[contentHash] */\n      0x00\n        /* \"ProvenanceRegistry.sol\":6144:6155  contentHash */\n      dup4\n        /* \"ProvenanceRegistry.sol\":6134:6156  _registry[contentHash] */\n      dup2\n      mstore\n      0x20\n      add\n      swap1\n      dup2\n      mstore\n      0x20\n      add\n      0x00\n      keccak256\n        /* \"ProvenanceRegistry.sol\":6134:6339  _registry[contentHash] = ProvenanceRecord({... */\n      0x00\n      dup3\n      add\n      mload\n      dup2\n      0x00\n      add\n      sstore\n      0x20\n      dup3\n      add\n      mload\n      dup2\n      0x01\n      add\n      exp(0x0100, 0x00)\n      dup2\n      sload\n      dup2\n      0xffffffffffffffffffffffffffffffffffffffff\n      mul\n      not\n      and\n      swap1\n      dup4\n      0xffffffffffffffffffffffffffffffffffffffff\n      and\n      mul\n      or\n      swap1\n      sstore\n      pop\n      0x40\n      dup3\n      add\n      mload\n      dup2\n      0x02\n      add\n      sstore\n      0x60\n      dup3\n      add\n      mload\n      dup2\n      0x03\n      add\n      exp(0x0100, 0x00)\n      dup2\n      sload\n      dup2\n      0xff\n      mul\n      not\n      and\n      swap1\n      dup4\n      iszero\n      iszero\n      mul\n      or\n      swap1\n      sstore\n      pop\n      swap1\n      pop\n      pop\n        /* \"ProvenanceRegistry.sol\":6376:6391  totalRegistered */\n      0x01\n      0x00\n        /* \"ProvenanceRegistry.sol\":6374:6391  ++totalRegistered */\n      dup2\n      sload\n      0x01\n      add\n      swap2\n      swap1\n      pop\n      dup2\n      swap1\n      sstore\n      pop\n        /* \"ProvenanceRegistry.sol\":6446:6456  msg.sender */\n      caller\n        /* \"ProvenanceRegistry.sol\":6417:6474  AssetRegistered(contentHash, msg.sender, block.timestamp) */\n      0xffffffffffffffffffffffffffffffffffffffff\n      and\n        /* \"ProvenanceRegistry.sol\":6433:6444  contentHash */\n      dup2\n        /* \"ProvenanceRegistry.sol\":6417:6474  AssetRegistered(contentHash, msg.sender, block.timestamp) */\n      0x183dd7ee8d3db71edaccba8d77d2f4ba0c9ca60c557f9fd881798fcf62719d5f\n        /* \"ProvenanceRegistry.sol\":6458:6473  block.timestamp */\n      timestamp\n        /* \"ProvenanceRegistry.sol\":6417:6474  AssetRegistered(contentHash, msg.sender, block.timestamp) */\n      mload(0x40)\n      tag_47\n      swap2\n      swap1\n      tag_29\n      jump\t// in\n    tag_47:\n      mload(0x40)\n      dup1\n      swap2\n      sub\n      swap1\n      log3\n        /* \"ProvenanceRegistry.sol\":5729:6481  function registerAsset(bytes32 contentHash) external {... */\n      pop\n      jump\t// out\n        /* \"ProvenanceRegistry.sol\":4885:5495  function anchorHash(bytes32 contentHash) external {... */\n    tag_25:\n        /* \"ProvenanceRegistry.sol\":4972:4973  0 */\n      0x00\n        /* \"ProvenanceRegistry.sol\":4964:4974  bytes32(0) */\n      0x00\n      shl\n        /* \"ProvenanceRegistry.sol\":4949:4960  contentHash */\n      dup2\n        /* \"ProvenanceRegistry.sol\":4949:4974  contentHash == bytes32(0) */\n      sub\n        /* \"ProvenanceRegistry.sol\":4945:5028  if (contentHash == bytes32(0)) {... */\n      tag_49\n      jumpi\n        /* \"ProvenanceRegistry.sol\":4997:5017  InvalidContentHash() */\n      mload(0x40)\n      0x68e1d61b00000000000000000000000000000000000000000000000000000000\n      dup2\n      mstore\n      0x04\n      add\n      mload(0x40)\n      dup1\n      swap2\n      sub\n      swap1\n      revert\n        /* \"ProvenanceRegistry.sol\":4945:5028  if (contentHash == bytes32(0)) {... */\n    tag_49:\n        /* \"ProvenanceRegistry.sol\":5041:5050  _registry */\n      0x00\n        /* \"ProvenanceRegistry.sol\":5041:5063  _registry[contentHash] */\n      0x00\n        /* \"ProvenanceRegistry.sol\":5051:5062  contentHash */\n      dup3\n        /* \"ProvenanceRegistry.sol\":5041:5063  _registry[contentHash] */\n      dup2\n      mstore\n      0x20\n      add\n      swap1\n      dup2\n      mstore\n      0x20\n      add\n      0x00\n      keccak256\n        /* \"ProvenanceRegistry.sol\":5041:5070  _registry[contentHash].exists */\n      0x03\n      add\n      0x00\n      swap1\n      sload\n      swap1\n      0x0100\n      exp\n      swap1\n      div\n      0xff\n      and\n        /* \"ProvenanceRegistry.sol\":5037:5138  if (_registry[contentHash].exists) {... */\n      iszero\n      tag_50\n      jumpi\n        /* \"ProvenanceRegistry.sol\":5115:5126  contentHash */\n      dup1\n        /* \"ProvenanceRegistry.sol\":5093:5127  HashAlreadyRegistered(contentHash) */\n      mload(0x40)\n      0x65fe531700000000000000000000000000000000000000000000000000000000\n      dup2\n      mstore\n      0x04\n      add\n      tag_51\n      swap2\n      swap1\n      tag_46\n      jump\t// in\n    tag_51:\n      mload(0x40)\n      dup1\n      swap2\n      sub\n      swap1\n      revert\n        /* \"ProvenanceRegistry.sol\":5037:5138  if (_registry[contentHash].exists) {... */\n    tag_50:\n        /* \"ProvenanceRegistry.sol\":5173:5353  ProvenanceRecord({... */\n      mload(0x40)\n      dup1\n      0x80\n      add\n      0x40\n      mstore\n      dup1\n        /* \"ProvenanceRegistry.sol\":5218:5229  contentHash */\n      dup3\n        /* \"ProvenanceRegistry.sol\":5173:5353  ProvenanceRecord({... */\n      dup2\n      mstore\n      0x20\n      add\n        /* \"ProvenanceRegistry.sol\":5257:5267  msg.sender */\n      caller\n        /* \"ProvenanceRegistry.sol\":5173:5353  ProvenanceRecord({... */\n      0xffffffffffffffffffffffffffffffffffffffff\n      and\n      dup2\n      mstore\n      0x20\n      add\n        /* \"ProvenanceRegistry.sol\":5295:5310  block.timestamp */\n      timestamp\n        /* \"ProvenanceRegistry.sol\":5173:5353  ProvenanceRecord({... */\n      dup2\n      mstore\n      0x20\n      add\n        /* \"ProvenanceRegistry.sol\":5338:5342  true */\n      0x01\n        /* \"ProvenanceRegistry.sol\":5173:5353  ProvenanceRecord({... */\n      iszero\n      iszero\n      dup2\n      mstore\n      pop\n        /* \"ProvenanceRegistry.sol\":5148:5157  _registry */\n      0x00\n        /* \"ProvenanceRegistry.sol\":5148:5170  _registry[contentHash] */\n      0x00\n        /* \"ProvenanceRegistry.sol\":5158:5169  contentHash */\n      dup4\n        /* \"ProvenanceRegistry.sol\":5148:5170  _registry[contentHash] */\n      dup2\n      mstore\n      0x20\n      add\n      swap1\n      dup2\n      mstore\n      0x20\n      add\n      0x00\n      keccak256\n        /* \"ProvenanceRegistry.sol\":5148:5353  _registry[contentHash] = ProvenanceRecord({... */\n      0x00\n      dup3\n      add\n      mload\n      dup2\n      0x00\n      add\n      sstore\n      0x20\n      dup3\n      add\n      mload\n      dup2\n      0x01\n      add\n      exp(0x0100, 0x00)\n      dup2\n      sload\n      dup2\n      0xffffffffffffffffffffffffffffffffffffffff\n      mul\n      not\n      and\n      swap1\n      dup4\n      0xffffffffffffffffffffffffffffffffffffffff\n      and\n      mul\n      or\n      swap1\n      sstore\n      pop\n      0x40\n      dup3\n      add\n      mload\n      dup2\n      0x02\n      add\n      sstore\n      0x60\n      dup3\n      add\n      mload\n      dup2\n      0x03\n      add\n      exp(0x0100, 0x00)\n      dup2\n      sload\n      dup2\n      0xff\n      mul\n      not\n      and\n      swap1\n      dup4\n      iszero\n      iszero\n      mul\n      or\n      swap1\n      sstore\n      pop\n      swap1\n      pop\n      pop\n        /* \"ProvenanceRegistry.sol\":5390:5405  totalRegistered */\n      0x01\n      0x00\n        /* \"ProvenanceRegistry.sol\":5388:5405  ++totalRegistered */\n      dup2\n      sload\n      0x01\n      add\n      swap2\n      swap1\n      pop\n      dup2\n      swap1\n      sstore\n      pop\n        /* \"ProvenanceRegistry.sol\":5460:5470  msg.sender */\n      caller\n        /* \"ProvenanceRegistry.sol\":5431:5488  AssetRegistered(contentHash, msg.sender, block.timestamp) */\n      0xffffffffffffffffffffffffffffffffffffffff\n      and\n        /* \"ProvenanceRegistry.sol\":5447:5458  contentHash */\n      dup2\n        /* \"ProvenanceRegistry.sol\":5431:5488  AssetRegistered(contentHash, msg.sender, block.timestamp) */\n      0x183dd7ee8d3db71edaccba8d77d2f4ba0c9ca60c557f9fd881798fcf62719d5f\n        /* \"ProvenanceRegistry.sol\":5472:5487  block.timestamp */\n      timestamp\n        /* \"ProvenanceRegistry.sol\":5431:5488  AssetRegistered(contentHash, msg.sender, block.timestamp) */\n      mload(0x40)\n      tag_52\n      swap2\n      swap1\n      tag_29\n      jump\t// in\n    tag_52:\n      mload(0x40)\n      dup1\n      swap2\n      sub\n      swap1\n      log3\n        /* \"ProvenanceRegistry.sol\":4885:5495  function anchorHash(bytes32 contentHash) external {... */\n      pop\n      jump\t// out\n        /* \"ProvenanceRegistry.sol\":2333:2363  uint256 public totalRegistered */\n    tag_27:\n      sload(0x01)\n      dup2\n      jump\t// out\n        /* \"ProvenanceRegistry.sol\":7447:7696  function verifyAsset(bytes32 contentHash)... */\n    tag_32:\n        /* \"ProvenanceRegistry.sol\":7536:7546  bool found */\n      0x00\n        /* \"ProvenanceRegistry.sol\":7548:7578  ProvenanceRecord memory record */\n      tag_53\n      tag_36\n      jump\t// in\n    tag_53:\n        /* \"ProvenanceRegistry.sol\":7603:7612  _registry */\n      0x00\n        /* \"ProvenanceRegistry.sol\":7603:7625  _registry[contentHash] */\n      0x00\n        /* \"ProvenanceRegistry.sol\":7613:7624  contentHash */\n      dup5\n        /* \"ProvenanceRegistry.sol\":7603:7625  _registry[contentHash] */\n      dup2\n      mstore\n      0x20\n      add\n      swap1\n      dup2\n      mstore\n      0x20\n      add\n      0x00\n      keccak256\n        /* \"ProvenanceRegistry.sol\":7594:7625  record = _registry[contentHash] */\n      mload(0x40)\n      dup1\n      0x80\n      add\n      0x40\n      mstore\n      swap1\n      dup2\n      0x00\n      dup3\n      add\n      sload\n      dup2\n      mstore\n      0x20\n      add\n      0x01\n      dup3\n      add\n      0x00\n      swap1\n      sload\n      swap1\n      0x0100\n      exp\n      swap1\n      div\n      0xffffffffffffffffffffffffffffffffffffffff\n      and\n      0xffffffffffffffffffffffffffffffffffffffff\n      and\n      0xffffffffffffffffffffffffffffffffffffffff\n      and\n      dup2\n      mstore\n      0x20\n      add\n      0x02\n      dup3\n      add\n      sload\n      dup2\n      mstore\n      0x20\n      add\n      0x03\n      dup3\n      add\n      0x00\n      swap1\n      sload\n      swap1\n      0x0100\n      exp\n      swap1\n      div\n      0xff\n      and\n      iszero\n      iszero\n      iszero\n      iszero\n      dup2\n      mstore\n      pop\n      pop\n      swap1\n      pop\n        /* \"ProvenanceRegistry.sol\":7644:7650  record */\n      dup1\n        /* \"ProvenanceRegistry.sol\":7644:7657  record.exists */\n      0x60\n      add\n      mload\n        /* \"ProvenanceRegistry.sol\":7635:7657  found  = record.exists */\n      swap2\n      pop\n        /* \"ProvenanceRegistry.sol\":7447:7696  function verifyAsset(bytes32 contentHash)... */\n      swap2\n      pop\n      swap2\n      jump\t// out\n    tag_36:\n      mload(0x40)\n      dup1\n      0x80\n      add\n      0x40\n      mstore\n      dup1\n      0x00\n      dup2\n      mstore\n      0x20\n      add\n      and(0xffffffffffffffffffffffffffffffffffffffff, 0x00)\n      dup2\n      mstore\n      0x20\n      add\n      0x00\n      dup2\n      mstore\n      0x20\n      add\n      iszero(iszero(0x00))\n      dup2\n      mstore\n      pop\n      swap1\n      jump\t// out\n        /* \"#utility.yul\":88:205   */\n    tag_56:\n        /* \"#utility.yul\":197:198   */\n      0x00\n        /* \"#utility.yul\":194:195   */\n      0x00\n        /* \"#utility.yul\":187:199   */\n      revert\n        /* \"#utility.yul\":334:411   */\n    tag_58:\n        /* \"#utility.yul\":371:378   */\n      0x00\n        /* \"#utility.yul\":400:405   */\n      dup2\n        /* \"#utility.yul\":389:405   */\n      swap1\n      pop\n        /* \"#utility.yul\":334:411   */\n      swap2\n      swap1\n      pop\n      jump\t// out\n        /* \"#utility.yul\":417:539   */\n    tag_59:\n        /* \"#utility.yul\":490:514   */\n      tag_82\n        /* \"#utility.yul\":508:513   */\n      dup2\n        /* \"#utility.yul\":490:514   */\n      tag_58\n      jump\t// in\n    tag_82:\n        /* \"#utility.yul\":483:488   */\n      dup2\n        /* \"#utility.yul\":480:515   */\n      eq\n        /* \"#utility.yul\":470:533   */\n      tag_83\n      jumpi\n        /* \"#utility.yul\":529:530   */\n      0x00\n        /* \"#utility.yul\":526:527   */\n      0x00\n        /* \"#utility.yul\":519:531   */\n      revert\n        /* \"#utility.yul\":470:533   */\n    tag_83:\n        /* \"#utility.yul\":417:539   */\n      pop\n      jump\t// out\n        /* \"#utility.yul\":545:684   */\n    tag_60:\n        /* \"#utility.yul\":591:596   */\n      0x00\n        /* \"#utility.yul\":629:635   */\n      dup2\n        /* \"#utility.yul\":616:636   */\n      calldataload\n        /* \"#utility.yul\":607:636   */\n      swap1\n      pop\n        /* \"#utility.yul\":645:678   */\n      tag_85\n        /* \"#utility.yul\":672:677   */\n      dup2\n        /* \"#utility.yul\":645:678   */\n      tag_59\n      jump\t// in\n    tag_85:\n        /* \"#utility.yul\":545:684   */\n      swap3\n      swap2\n      pop\n      pop\n      jump\t// out\n        /* \"#utility.yul\":690:1019   */\n    tag_11:\n        /* \"#utility.yul\":749:755   */\n      0x00\n        /* \"#utility.yul\":798:800   */\n      0x20\n        /* \"#utility.yul\":786:795   */\n      dup3\n        /* \"#utility.yul\":777:784   */\n      dup5\n        /* \"#utility.yul\":773:796   */\n      sub\n        /* \"#utility.yul\":769:801   */\n      slt\n        /* \"#utility.yul\":766:885   */\n      iszero\n      tag_87\n      jumpi\n        /* \"#utility.yul\":804:883   */\n      tag_88\n      tag_56\n      jump\t// in\n    tag_88:\n        /* \"#utility.yul\":766:885   */\n    tag_87:\n        /* \"#utility.yul\":924:925   */\n      0x00\n        /* \"#utility.yul\":949:1002   */\n      tag_89\n        /* \"#utility.yul\":994:1001   */\n      dup5\n        /* \"#utility.yul\":985:991   */\n      dup3\n        /* \"#utility.yul\":974:983   */\n      dup6\n        /* \"#utility.yul\":970:992   */\n      add\n        /* \"#utility.yul\":949:1002   */\n      tag_60\n      jump\t// in\n    tag_89:\n        /* \"#utility.yul\":939:1002   */\n      swap2\n      pop\n        /* \"#utility.yul\":895:1012   */\n      pop\n        /* \"#utility.yul\":690:1019   */\n      swap3\n      swap2\n      pop\n      pop\n      jump\t// out\n        /* \"#utility.yul\":1025:1133   */\n    tag_61:\n        /* \"#utility.yul\":1102:1126   */\n      tag_91\n        /* \"#utility.yul\":1120:1125   */\n      dup2\n        /* \"#utility.yul\":1102:1126   */\n      tag_58\n      jump\t// in\n    tag_91:\n        /* \"#utility.yul\":1097:1100   */\n      dup3\n        /* \"#utility.yul\":1090:1127   */\n      mstore\n        /* \"#utility.yul\":1025:1133   */\n      pop\n      pop\n      jump\t// out\n        /* \"#utility.yul\":1139:1265   */\n    tag_62:\n        /* \"#utility.yul\":1176:1183   */\n      0x00\n        /* \"#utility.yul\":1216:1258   */\n      0xffffffffffffffffffffffffffffffffffffffff\n        /* \"#utility.yul\":1209:1214   */\n      dup3\n        /* \"#utility.yul\":1205:1259   */\n      and\n        /* \"#utility.yul\":1194:1259   */\n      swap1\n      pop\n        /* \"#utility.yul\":1139:1265   */\n      swap2\n      swap1\n      pop\n      jump\t// out\n        /* \"#utility.yul\":1271:1367   */\n    tag_63:\n        /* \"#utility.yul\":1308:1315   */\n      0x00\n        /* \"#utility.yul\":1337:1361   */\n      tag_94\n        /* \"#utility.yul\":1355:1360   */\n      dup3\n        /* \"#utility.yul\":1337:1361   */\n      tag_62\n      jump\t// in\n    tag_94:\n        /* \"#utility.yul\":1326:1361   */\n      swap1\n      pop\n        /* \"#utility.yul\":1271:1367   */\n      swap2\n      swap1\n      pop\n      jump\t// out\n        /* \"#utility.yul\":1373:1481   */\n    tag_64:\n        /* \"#utility.yul\":1450:1474   */\n      tag_96\n        /* \"#utility.yul\":1468:1473   */\n      dup2\n        /* \"#utility.yul\":1450:1474   */\n      tag_63\n      jump\t// in\n    tag_96:\n        /* \"#utility.yul\":1445:1448   */\n      dup3\n        /* \"#utility.yul\":1438:1475   */\n      mstore\n        /* \"#utility.yul\":1373:1481   */\n      pop\n      pop\n      jump\t// out\n        /* \"#utility.yul\":1487:1564   */\n    tag_65:\n        /* \"#utility.yul\":1524:1531   */\n      0x00\n        /* \"#utility.yul\":1553:1558   */\n      dup2\n        /* \"#utility.yul\":1542:1558   */\n      swap1\n      pop\n        /* \"#utility.yul\":1487:1564   */\n      swap2\n      swap1\n      pop\n      jump\t// out\n        /* \"#utility.yul\":1570:1678   */\n    tag_66:\n        /* \"#utility.yul\":1647:1671   */\n      tag_99\n        /* \"#utility.yul\":1665:1670   */\n      dup2\n        /* \"#utility.yul\":1647:1671   */\n      tag_65\n      jump\t// in\n    tag_99:\n        /* \"#utility.yul\":1642:1645   */\n      dup3\n        /* \"#utility.yul\":1635:1672   */\n      mstore\n        /* \"#utility.yul\":1570:1678   */\n      pop\n      pop\n      jump\t// out\n        /* \"#utility.yul\":1684:1774   */\n    tag_67:\n        /* \"#utility.yul\":1718:1725   */\n      0x00\n        /* \"#utility.yul\":1761:1766   */\n      dup2\n        /* \"#utility.yul\":1754:1767   */\n      iszero\n        /* \"#utility.yul\":1747:1768   */\n      iszero\n        /* \"#utility.yul\":1736:1768   */\n      swap1\n      pop\n        /* \"#utility.yul\":1684:1774   */\n      swap2\n      swap1\n      pop\n      jump\t// out\n        /* \"#utility.yul\":1780:1879   */\n    tag_68:\n        /* \"#utility.yul\":1851:1872   */\n      tag_102\n        /* \"#utility.yul\":1866:1871   */\n      dup2\n        /* \"#utility.yul\":1851:1872   */\n      tag_67\n      jump\t// in\n    tag_102:\n        /* \"#utility.yul\":1846:1849   */\n      dup3\n        /* \"#utility.yul\":1839:1873   */\n      mstore\n        /* \"#utility.yul\":1780:1879   */\n      pop\n      pop\n      jump\t// out\n        /* \"#utility.yul\":1981:2866   */\n    tag_69:\n        /* \"#utility.yul\":2142:2146   */\n      0x80\n        /* \"#utility.yul\":2137:2140   */\n      dup3\n        /* \"#utility.yul\":2133:2147   */\n      add\n        /* \"#utility.yul\":2236:2240   */\n      0x00\n        /* \"#utility.yul\":2229:2234   */\n      dup3\n        /* \"#utility.yul\":2225:2241   */\n      add\n        /* \"#utility.yul\":2219:2242   */\n      mload\n        /* \"#utility.yul\":2255:2318   */\n      tag_104\n        /* \"#utility.yul\":2312:2316   */\n      0x00\n        /* \"#utility.yul\":2307:2310   */\n      dup6\n        /* \"#utility.yul\":2303:2317   */\n      add\n        /* \"#utility.yul\":2289:2301   */\n      dup3\n        /* \"#utility.yul\":2255:2318   */\n      tag_61\n      jump\t// in\n    tag_104:\n        /* \"#utility.yul\":2157:2328   */\n      pop\n        /* \"#utility.yul\":2418:2422   */\n      0x20\n        /* \"#utility.yul\":2411:2416   */\n      dup3\n        /* \"#utility.yul\":2407:2423   */\n      add\n        /* \"#utility.yul\":2401:2424   */\n      mload\n        /* \"#utility.yul\":2437:2500   */\n      tag_105\n        /* \"#utility.yul\":2494:2498   */\n      0x20\n        /* \"#utility.yul\":2489:2492   */\n      dup6\n        /* \"#utility.yul\":2485:2499   */\n      add\n        /* \"#utility.yul\":2471:2483   */\n      dup3\n        /* \"#utility.yul\":2437:2500   */\n      tag_64\n      jump\t// in\n    tag_105:\n        /* \"#utility.yul\":2338:2510   */\n      pop\n        /* \"#utility.yul\":2597:2601   */\n      0x40\n        /* \"#utility.yul\":2590:2595   */\n      dup3\n        /* \"#utility.yul\":2586:2602   */\n      add\n        /* \"#utility.yul\":2580:2603   */\n      mload\n        /* \"#utility.yul\":2616:2679   */\n      tag_106\n        /* \"#utility.yul\":2673:2677   */\n      0x40\n        /* \"#utility.yul\":2668:2671   */\n      dup6\n        /* \"#utility.yul\":2664:2678   */\n      add\n        /* \"#utility.yul\":2650:2662   */\n      dup3\n        /* \"#utility.yul\":2616:2679   */\n      tag_66\n      jump\t// in\n    tag_106:\n        /* \"#utility.yul\":2520:2689   */\n      pop\n        /* \"#utility.yul\":2773:2777   */\n      0x60\n        /* \"#utility.yul\":2766:2771   */\n      dup3\n        /* \"#utility.yul\":2762:2778   */\n      add\n        /* \"#utility.yul\":2756:2779   */\n      mload\n        /* \"#utility.yul\":2792:2849   */\n      tag_107\n        /* \"#utility.yul\":2843:2847   */\n      0x60\n        /* \"#utility.yul\":2838:2841   */\n      dup6\n        /* \"#utility.yul\":2834:2848   */\n      add\n        /* \"#utility.yul\":2820:2832   */\n      dup3\n        /* \"#utility.yul\":2792:2849   */\n      tag_68\n      jump\t// in\n    tag_107:\n        /* \"#utility.yul\":2699:2859   */\n      pop\n        /* \"#utility.yul\":2111:2866   */\n      pop\n        /* \"#utility.yul\":1981:2866   */\n      pop\n      pop\n      jump\t// out\n        /* \"#utility.yul\":2872:3223   */\n    tag_14:\n        /* \"#utility.yul\":3029:3033   */\n      0x00\n        /* \"#utility.yul\":3067:3070   */\n      0x80\n        /* \"#utility.yul\":3056:3065   */\n      dup3\n        /* \"#utility.yul\":3052:3071   */\n      add\n        /* \"#utility.yul\":3044:3071   */\n      swap1\n      pop\n        /* \"#utility.yul\":3081:3216   */\n      tag_109\n        /* \"#utility.yul\":3213:3214   */\n      0x00\n        /* \"#utility.yul\":3202:3211   */\n      dup4\n        /* \"#utility.yul\":3198:3215   */\n      add\n        /* \"#utility.yul\":3189:3195   */\n      dup5\n        /* \"#utility.yul\":3081:3216   */\n      tag_69\n      jump\t// in\n    tag_109:\n        /* \"#utility.yul\":2872:3223   */\n      swap3\n      swap2\n      pop\n      pop\n      jump\t// out\n        /* \"#utility.yul\":3229:3338   */\n    tag_70:\n        /* \"#utility.yul\":3310:3331   */\n      tag_111\n        /* \"#utility.yul\":3325:3330   */\n      dup2\n        /* \"#utility.yul\":3310:3331   */\n      tag_67\n      jump\t// in\n    tag_111:\n        /* \"#utility.yul\":3305:3308   */\n      dup3\n        /* \"#utility.yul\":3298:3332   */\n      mstore\n        /* \"#utility.yul\":3229:3338   */\n      pop\n      pop\n      jump\t// out\n        /* \"#utility.yul\":3344:3554   */\n    tag_19:\n        /* \"#utility.yul\":3431:3435   */\n      0x00\n        /* \"#utility.yul\":3469:3471   */\n      0x20\n        /* \"#utility.yul\":3458:3467   */\n      dup3\n        /* \"#utility.yul\":3454:3472   */\n      add\n        /* \"#utility.yul\":3446:3472   */\n      swap1\n      pop\n        /* \"#utility.yul\":3482:3547   */\n      tag_113\n        /* \"#utility.yul\":3544:3545   */\n      0x00\n        /* \"#utility.yul\":3533:3542   */\n      dup4\n        /* \"#utility.yul\":3529:3546   */\n      add\n        /* \"#utility.yul\":3520:3526   */\n      dup5\n        /* \"#utility.yul\":3482:3547   */\n      tag_70\n      jump\t// in\n    tag_113:\n        /* \"#utility.yul\":3344:3554   */\n      swap3\n      swap2\n      pop\n      pop\n      jump\t// out\n        /* \"#utility.yul\":3560:3678   */\n    tag_71:\n        /* \"#utility.yul\":3647:3671   */\n      tag_115\n        /* \"#utility.yul\":3665:3670   */\n      dup2\n        /* \"#utility.yul\":3647:3671   */\n      tag_65\n      jump\t// in\n    tag_115:\n        /* \"#utility.yul\":3642:3645   */\n      dup3\n        /* \"#utility.yul\":3635:3672   */\n      mstore\n        /* \"#utility.yul\":3560:3678   */\n      pop\n      pop\n      jump\t// out\n        /* \"#utility.yul\":3684:3906   */\n    tag_29:\n        /* \"#utility.yul\":3777:3781   */\n      0x00\n        /* \"#utility.yul\":3815:3817   */\n      0x20\n        /* \"#utility.yul\":3804:3813   */\n      dup3\n        /* \"#utility.yul\":3800:3818   */\n      add\n        /* \"#utility.yul\":3792:3818   */\n      swap1\n      pop\n        /* \"#utility.yul\":3828:3899   */\n      tag_117\n        /* \"#utility.yul\":3896:3897   */\n      0x00\n        /* \"#utility.yul\":3885:3894   */\n      dup4\n        /* \"#utility.yul\":3881:3898   */\n      add\n        /* \"#utility.yul\":3872:3878   */\n      dup5\n        /* \"#utility.yul\":3828:3899   */\n      tag_71\n      jump\t// in\n    tag_117:\n        /* \"#utility.yul\":3684:3906   */\n      swap3\n      swap2\n      pop\n      pop\n      jump\t// out\n        /* \"#utility.yul\":3912:4361   */\n    tag_34:\n        /* \"#utility.yul\":4091:4095   */\n      0x00\n        /* \"#utility.yul\":4129:4132   */\n      0xa0\n        /* \"#utility.yul\":4118:4127   */\n      dup3\n        /* \"#utility.yul\":4114:4133   */\n      add\n        /* \"#utility.yul\":4106:4133   */\n      swap1\n      pop\n        /* \"#utility.yul\":4143:4208   */\n      tag_119\n        /* \"#utility.yul\":4205:4206   */\n      0x00\n        /* \"#utility.yul\":4194:4203   */\n      dup4\n        /* \"#utility.yul\":4190:4207   */\n      add\n        /* \"#utility.yul\":4181:4187   */\n      dup6\n        /* \"#utility.yul\":4143:4208   */\n      tag_70\n      jump\t// in\n    tag_119:\n        /* \"#utility.yul\":4218:4354   */\n      tag_120\n        /* \"#utility.yul\":4350:4352   */\n      0x20\n        /* \"#utility.yul\":4339:4348   */\n      dup4\n        /* \"#utility.yul\":4335:4353   */\n      add\n        /* \"#utility.yul\":4326:4332   */\n      dup5\n        /* \"#utility.yul\":4218:4354   */\n      tag_69\n      jump\t// in\n    tag_120:\n        /* \"#utility.yul\":3912:4361   */\n      swap4\n      swap3\n      pop\n      pop\n      pop\n      jump\t// out\n        /* \"#utility.yul\":4367:4536   */\n    tag_72:\n        /* \"#utility.yul\":4451:4462   */\n      0x00\n        /* \"#utility.yul\":4485:4491   */\n      dup3\n        /* \"#utility.yul\":4480:4483   */\n      dup3\n        /* \"#utility.yul\":4473:4492   */\n      mstore\n        /* \"#utility.yul\":4525:4529   */\n      0x20\n        /* \"#utility.yul\":4520:4523   */\n      dup3\n        /* \"#utility.yul\":4516:4530   */\n      add\n        /* \"#utility.yul\":4501:4530   */\n      swap1\n      pop\n        /* \"#utility.yul\":4367:4536   */\n      swap3\n      swap2\n      pop\n      pop\n      jump\t// out\n        /* \"#utility.yul\":4542:4768   */\n    tag_73:\n        /* \"#utility.yul\":4682:4716   */\n      0x50726f76656e616e636552656769737472793a2068617368206e6f7420726567\n        /* \"#utility.yul\":4678:4679   */\n      0x00\n        /* \"#utility.yul\":4670:4676   */\n      dup3\n        /* \"#utility.yul\":4666:4680   */\n      add\n        /* \"#utility.yul\":4659:4717   */\n      mstore\n        /* \"#utility.yul\":4751:4760   */\n      0x6973746572656400000000000000000000000000000000000000000000000000\n        /* \"#utility.yul\":4746:4748   */\n      0x20\n        /* \"#utility.yul\":4738:4744   */\n      dup3\n        /* \"#utility.yul\":4734:4749   */\n      add\n        /* \"#utility.yul\":4727:4761   */\n      mstore\n        /* \"#utility.yul\":4542:4768   */\n      pop\n      jump\t// out\n        /* \"#utility.yul\":4774:5140   */\n    tag_74:\n        /* \"#utility.yul\":4916:4919   */\n      0x00\n        /* \"#utility.yul\":4937:5004   */\n      tag_124\n        /* \"#utility.yul\":5001:5003   */\n      0x27\n        /* \"#utility.yul\":4996:4999   */\n      dup4\n        /* \"#utility.yul\":4937:5004   */\n      tag_72\n      jump\t// in\n    tag_124:\n        /* \"#utility.yul\":4930:5004   */\n      swap2\n      pop\n        /* \"#utility.yul\":5013:5106   */\n      tag_125\n        /* \"#utility.yul\":5102:5105   */\n      dup3\n        /* \"#utility.yul\":5013:5106   */\n      tag_73\n      jump\t// in\n    tag_125:\n        /* \"#utility.yul\":5131:5133   */\n      0x40\n        /* \"#utility.yul\":5126:5129   */\n      dup3\n        /* \"#utility.yul\":5122:5134   */\n      add\n        /* \"#utility.yul\":5115:5134   */\n      swap1\n      pop\n        /* \"#utility.yul\":4774:5140   */\n      swap2\n      swap1\n      pop\n      jump\t// out\n        /* \"#utility.yul\":5146:5565   */\n    tag_40:\n        /* \"#utility.yul\":5312:5316   */\n      0x00\n        /* \"#utility.yul\":5350:5352   */\n      0x20\n        /* \"#utility.yul\":5339:5348   */\n      dup3\n        /* \"#utility.yul\":5335:5353   */\n      add\n        /* \"#utility.yul\":5327:5353   */\n      swap1\n      pop\n        /* \"#utility.yul\":5399:5408   */\n      dup2\n        /* \"#utility.yul\":5393:5397   */\n      dup2\n        /* \"#utility.yul\":5389:5409   */\n      sub\n        /* \"#utility.yul\":5385:5386   */\n      0x00\n        /* \"#utility.yul\":5374:5383   */\n      dup4\n        /* \"#utility.yul\":5370:5387   */\n      add\n        /* \"#utility.yul\":5363:5410   */\n      mstore\n        /* \"#utility.yul\":5427:5558   */\n      tag_127\n        /* \"#utility.yul\":5553:5557   */\n      dup2\n        /* \"#utility.yul\":5427:5558   */\n      tag_74\n      jump\t// in\n    tag_127:\n        /* \"#utility.yul\":5419:5558   */\n      swap1\n      pop\n        /* \"#utility.yul\":5146:5565   */\n      swap2\n      swap1\n      pop\n      jump\t// out\n        /* \"#utility.yul\":5571:5689   */\n    tag_75:\n        /* \"#utility.yul\":5658:5682   */\n      tag_129\n        /* \"#utility.yul\":5676:5681   */\n      dup2\n        /* \"#utility.yul\":5658:5682   */\n      tag_58\n      jump\t// in\n    tag_129:\n        /* \"#utility.yul\":5653:5656   */\n      dup3\n        /* \"#utility.yul\":5646:5683   */\n      mstore\n        /* \"#utility.yul\":5571:5689   */\n      pop\n      pop\n      jump\t// out\n        /* \"#utility.yul\":5695:5917   */\n    tag_46:\n        /* \"#utility.yul\":5788:5792   */\n      0x00\n        /* \"#utility.yul\":5826:5828   */\n      0x20\n        /* \"#utility.yul\":5815:5824   */\n      dup3\n        /* \"#utility.yul\":5811:5829   */\n      add\n        /* \"#utility.yul\":5803:5829   */\n      swap1\n      pop\n        /* \"#utility.yul\":5839:5910   */\n      tag_131\n        /* \"#utility.yul\":5907:5908   */\n      0x00\n        /* \"#utility.yul\":5896:5905   */\n      dup4\n        /* \"#utility.yul\":5892:5909   */\n      add\n        /* \"#utility.yul\":5883:5889   */\n      dup5\n        /* \"#utility.yul\":5839:5910   */\n      tag_75\n      jump\t// in\n    tag_131:\n        /* \"#utility.yul\":5695:5917   */\n      swap3\n      swap2\n      pop\n      pop\n      jump\t// out\n\n    auxdata: 0xa2646970667358221220a680cd1b29f0fcded8b786a5bcba6d3572c7e4897b0f959c70f452261fa0daf864736f6c634300081e0033\n}\n",
				"bytecode": {
					"linkReferences": {},
					"object": "6080604052348015600e575f5ffd5b506109b98061001c5f395ff3fe608060405234801561000f575f5ffd5b5060043610610060575f3560e01c8063213681cd1461006457806327258b22146100945780635b01afb5146100c457806392677c69146100e0578063927416c0146100fc578063fb4c7bdb1461011a575b5f5ffd5b61007e6004803603810190610079919061072f565b61014b565b60405161008b919061082d565b60405180910390f35b6100ae60048036038101906100a9919061072f565b610256565b6040516100bb9190610855565b60405180910390f35b6100de60048036038101906100d9919061072f565b61027e565b005b6100fa60048036038101906100f5919061072f565b610440565b005b610104610602565b604051610111919061087d565b60405180910390f35b610134600480360381019061012f919061072f565b610608565b604051610142929190610896565b60405180910390f35b6101536106bc565b5f5f8381526020019081526020015f206003015f9054906101000a900460ff166101b2576040517f08c379a00000000000000000000000000000000000000000000000000000000081526004016101a99061093d565b60405180910390fd5b5f5f8381526020019081526020015f206040518060800160405290815f8201548152602001600182015f9054906101000a900473ffffffffffffffffffffffffffffffffffffffff1673ffffffffffffffffffffffffffffffffffffffff1673ffffffffffffffffffffffffffffffffffffffff16815260200160028201548152602001600382015f9054906101000a900460ff1615151515815250509050919050565b5f5f5f8381526020019081526020015f206003015f9054906101000a900460ff169050919050565b5f5f1b81036102b9576040517f68e1d61b00000000000000000000000000000000000000000000000000000000815260040160405180910390fd5b5f5f8281526020019081526020015f206003015f9054906101000a900460ff161561031b57806040517f65fe5317000000000000000000000000000000000000000000000000000000008152600401610312919061096a565b60405180910390fd5b60405180608001604052808281526020013373ffffffffffffffffffffffffffffffffffffffff168152602001428152602001600115158152505f5f8381526020019081526020015f205f820151815f01556020820151816001015f6101000a81548173ffffffffffffffffffffffffffffffffffffffff021916908373ffffffffffffffffffffffffffffffffffffffff160217905550604082015181600201556060820151816003015f6101000a81548160ff02191690831515021790555090505060015f8154600101919050819055503373ffffffffffffffffffffffffffffffffffffffff16817f183dd7ee8d3db71edaccba8d77d2f4ba0c9ca60c557f9fd881798fcf62719d5f42604051610435919061087d565b60405180910390a350565b5f5f1b810361047b576040517f68e1d61b00000000000000000000000000000000000000000000000000000000815260040160405180910390fd5b5f5f8281526020019081526020015f206003015f9054906101000a900460ff16156104dd57806040517f65fe53170000000000000000000000000000000000000000000000000000000081526004016104d4919061096a565b60405180910390fd5b60405180608001604052808281526020013373ffffffffffffffffffffffffffffffffffffffff168152602001428152602001600115158152505f5f8381526020019081526020015f205f820151815f01556020820151816001015f6101000a81548173ffffffffffffffffffffffffffffffffffffffff021916908373ffffffffffffffffffffffffffffffffffffffff160217905550604082015181600201556060820151816003015f6101000a81548160ff02191690831515021790555090505060015f8154600101919050819055503373ffffffffffffffffffffffffffffffffffffffff16817f183dd7ee8d3db71edaccba8d77d2f4ba0c9ca60c557f9fd881798fcf62719d5f426040516105f7919061087d565b60405180910390a350565b60015481565b5f6106116106bc565b5f5f8481526020019081526020015f206040518060800160405290815f8201548152602001600182015f9054906101000a900473ffffffffffffffffffffffffffffffffffffffff1673ffffffffffffffffffffffffffffffffffffffff1673ffffffffffffffffffffffffffffffffffffffff16815260200160028201548152602001600382015f9054906101000a900460ff161515151581525050905080606001519150915091565b60405180608001604052805f81526020015f73ffffffffffffffffffffffffffffffffffffffff1681526020015f81526020015f151581525090565b5f5ffd5b5f819050919050565b61070e816106fc565b8114610718575f5ffd5b50565b5f8135905061072981610705565b92915050565b5f60208284031215610744576107436106f8565b5b5f6107518482850161071b565b91505092915050565b610763816106fc565b82525050565b5f73ffffffffffffffffffffffffffffffffffffffff82169050919050565b5f61079282610769565b9050919050565b6107a281610788565b82525050565b5f819050919050565b6107ba816107a8565b82525050565b5f8115159050919050565b6107d4816107c0565b82525050565b608082015f8201516107ee5f85018261075a565b5060208201516108016020850182610799565b50604082015161081460408501826107b1565b50606082015161082760608501826107cb565b50505050565b5f6080820190506108405f8301846107da565b92915050565b61084f816107c0565b82525050565b5f6020820190506108685f830184610846565b92915050565b610877816107a8565b82525050565b5f6020820190506108905f83018461086e565b92915050565b5f60a0820190506108a95f830185610846565b6108b660208301846107da565b9392505050565b5f82825260208201905092915050565b7f50726f76656e616e636552656769737472793a2068617368206e6f74207265675f8201527f6973746572656400000000000000000000000000000000000000000000000000602082015250565b5f6109276027836108bd565b9150610932826108cd565b604082019050919050565b5f6020820190508181035f8301526109548161091b565b9050919050565b610964816106fc565b82525050565b5f60208201905061097d5f83018461095b565b9291505056fea2646970667358221220a680cd1b29f0fcded8b786a5bcba6d3572c7e4897b0f959c70f452261fa0daf864736f6c634300081e0033",
					"opcodes": "PUSH1 0x80 PUSH1 0x40 MSTORE CALLVALUE DUP1 ISZERO PUSH1 0xE JUMPI PUSH0 PUSH0 REVERT JUMPDEST POP PUSH2 0x9B9 DUP1 PUSH2 0x1C PUSH0 CODECOPY PUSH0 RETURN INVALID PUSH1 0x80 PUSH1 0x40 MSTORE CALLVALUE DUP1 ISZERO PUSH2 0xF JUMPI PUSH0 PUSH0 REVERT JUMPDEST POP PUSH1 0x4 CALLDATASIZE LT PUSH2 0x60 JUMPI PUSH0 CALLDATALOAD PUSH1 0xE0 SHR DUP1 PUSH4 0x213681CD EQ PUSH2 0x64 JUMPI DUP1 PUSH4 0x27258B22 EQ PUSH2 0x94 JUMPI DUP1 PUSH4 0x5B01AFB5 EQ PUSH2 0xC4 JUMPI DUP1 PUSH4 0x92677C69 EQ PUSH2 0xE0 JUMPI DUP1 PUSH4 0x927416C0 EQ PUSH2 0xFC JUMPI DUP1 PUSH4 0xFB4C7BDB EQ PUSH2 0x11A JUMPI JUMPDEST PUSH0 PUSH0 REVERT JUMPDEST PUSH2 0x7E PUSH1 0x4 DUP1 CALLDATASIZE SUB DUP2 ADD SWAP1 PUSH2 0x79 SWAP2 SWAP1 PUSH2 0x72F JUMP JUMPDEST PUSH2 0x14B JUMP JUMPDEST PUSH1 0x40 MLOAD PUSH2 0x8B SWAP2 SWAP1 PUSH2 0x82D JUMP JUMPDEST PUSH1 0x40 MLOAD DUP1 SWAP2 SUB SWAP1 RETURN JUMPDEST PUSH2 0xAE PUSH1 0x4 DUP1 CALLDATASIZE SUB DUP2 ADD SWAP1 PUSH2 0xA9 SWAP2 SWAP1 PUSH2 0x72F JUMP JUMPDEST PUSH2 0x256 JUMP JUMPDEST PUSH1 0x40 MLOAD PUSH2 0xBB SWAP2 SWAP1 PUSH2 0x855 JUMP JUMPDEST PUSH1 0x40 MLOAD DUP1 SWAP2 SUB SWAP1 RETURN JUMPDEST PUSH2 0xDE PUSH1 0x4 DUP1 CALLDATASIZE SUB DUP2 ADD SWAP1 PUSH2 0xD9 SWAP2 SWAP1 PUSH2 0x72F JUMP JUMPDEST PUSH2 0x27E JUMP JUMPDEST STOP JUMPDEST PUSH2 0xFA PUSH1 0x4 DUP1 CALLDATASIZE SUB DUP2 ADD SWAP1 PUSH2 0xF5 SWAP2 SWAP1 PUSH2 0x72F JUMP JUMPDEST PUSH2 0x440 JUMP JUMPDEST STOP JUMPDEST PUSH2 0x104 PUSH2 0x602 JUMP JUMPDEST PUSH1 0x40 MLOAD PUSH2 0x111 SWAP2 SWAP1 PUSH2 0x87D JUMP JUMPDEST PUSH1 0x40 MLOAD DUP1 SWAP2 SUB SWAP1 RETURN JUMPDEST PUSH2 0x134 PUSH1 0x4 DUP1 CALLDATASIZE SUB DUP2 ADD SWAP1 PUSH2 0x12F SWAP2 SWAP1 PUSH2 0x72F JUMP JUMPDEST PUSH2 0x608 JUMP JUMPDEST PUSH1 0x40 MLOAD PUSH2 0x142 SWAP3 SWAP2 SWAP1 PUSH2 0x896 JUMP JUMPDEST PUSH1 0x40 MLOAD DUP1 SWAP2 SUB SWAP1 RETURN JUMPDEST PUSH2 0x153 PUSH2 0x6BC JUMP JUMPDEST PUSH0 PUSH0 DUP4 DUP2 MSTORE PUSH1 0x20 ADD SWAP1 DUP2 MSTORE PUSH1 0x20 ADD PUSH0 KECCAK256 PUSH1 0x3 ADD PUSH0 SWAP1 SLOAD SWAP1 PUSH2 0x100 EXP SWAP1 DIV PUSH1 0xFF AND PUSH2 0x1B2 JUMPI PUSH1 0x40 MLOAD PUSH32 0x8C379A000000000000000000000000000000000000000000000000000000000 DUP2 MSTORE PUSH1 0x4 ADD PUSH2 0x1A9 SWAP1 PUSH2 0x93D JUMP JUMPDEST PUSH1 0x40 MLOAD DUP1 SWAP2 SUB SWAP1 REVERT JUMPDEST PUSH0 PUSH0 DUP4 DUP2 MSTORE PUSH1 0x20 ADD SWAP1 DUP2 MSTORE PUSH1 0x20 ADD PUSH0 KECCAK256 PUSH1 0x40 MLOAD DUP1 PUSH1 0x80 ADD PUSH1 0x40 MSTORE SWAP1 DUP2 PUSH0 DUP3 ADD SLOAD DUP2 MSTORE PUSH1 0x20 ADD PUSH1 0x1 DUP3 ADD PUSH0 SWAP1 SLOAD SWAP1 PUSH2 0x100 EXP SWAP1 DIV PUSH20 0xFFFFFFFFFFFFFFFFFFFFFFFFFFFFFFFFFFFFFFFF AND PUSH20 0xFFFFFFFFFFFFFFFFFFFFFFFFFFFFFFFFFFFFFFFF AND PUSH20 0xFFFFFFFFFFFFFFFFFFFFFFFFFFFFFFFFFFFFFFFF AND DUP2 MSTORE PUSH1 0x20 ADD PUSH1 0x2 DUP3 ADD SLOAD DUP2 MSTORE PUSH1 0x20 ADD PUSH1 0x3 DUP3 ADD PUSH0 SWAP1 SLOAD SWAP1 PUSH2 0x100 EXP SWAP1 DIV PUSH1 0xFF AND ISZERO ISZERO ISZERO ISZERO DUP2 MSTORE POP POP SWAP1 POP SWAP2 SWAP1 POP JUMP JUMPDEST PUSH0 PUSH0 PUSH0 DUP4 DUP2 MSTORE PUSH1 0x20 ADD SWAP1 DUP2 MSTORE PUSH1 0x20 ADD PUSH0 KECCAK256 PUSH1 0x3 ADD PUSH0 SWAP1 SLOAD SWAP1 PUSH2 0x100 EXP SWAP1 DIV PUSH1 0xFF AND SWAP1 POP SWAP2 SWAP1 POP JUMP JUMPDEST PUSH0 PUSH0 SHL DUP2 SUB PUSH2 0x2B9 JUMPI PUSH1 0x40 MLOAD PUSH32 0x68E1D61B00000000000000000000000000000000000000000000000000000000 DUP2 MSTORE PUSH1 0x4 ADD PUSH1 0x40 MLOAD DUP1 SWAP2 SUB SWAP1 REVERT JUMPDEST PUSH0 PUSH0 DUP3 DUP2 MSTORE PUSH1 0x20 ADD SWAP1 DUP2 MSTORE PUSH1 0x20 ADD PUSH0 KECCAK256 PUSH1 0x3 ADD PUSH0 SWAP1 SLOAD SWAP1 PUSH2 0x100 EXP SWAP1 DIV PUSH1 0xFF AND ISZERO PUSH2 0x31B JUMPI DUP1 PUSH1 0x40 MLOAD PUSH32 0x65FE531700000000000000000000000000000000000000000000000000000000 DUP2 MSTORE PUSH1 0x4 ADD PUSH2 0x312 SWAP2 SWAP1 PUSH2 0x96A JUMP JUMPDEST PUSH1 0x40 MLOAD DUP1 SWAP2 SUB SWAP1 REVERT JUMPDEST PUSH1 0x40 MLOAD DUP1 PUSH1 0x80 ADD PUSH1 0x40 MSTORE DUP1 DUP3 DUP2 MSTORE PUSH1 0x20 ADD CALLER PUSH20 0xFFFFFFFFFFFFFFFFFFFFFFFFFFFFFFFFFFFFFFFF AND DUP2 MSTORE PUSH1 0x20 ADD TIMESTAMP DUP2 MSTORE PUSH1 0x20 ADD PUSH1 0x1 ISZERO ISZERO DUP2 MSTORE POP PUSH0 PUSH0 DUP4 DUP2 MSTORE PUSH1 0x20 ADD SWAP1 DUP2 MSTORE PUSH1 0x20 ADD PUSH0 KECCAK256 PUSH0 DUP3 ADD MLOAD DUP2 PUSH0 ADD SSTORE PUSH1 0x20 DUP3 ADD MLOAD DUP2 PUSH1 0x1 ADD PUSH0 PUSH2 0x100 EXP DUP2 SLOAD DUP2 PUSH20 0xFFFFFFFFFFFFFFFFFFFFFFFFFFFFFFFFFFFFFFFF MUL NOT AND SWAP1 DUP4 PUSH20 0xFFFFFFFFFFFFFFFFFFFFFFFFFFFFFFFFFFFFFFFF AND MUL OR SWAP1 SSTORE POP PUSH1 0x40 DUP3 ADD MLOAD DUP2 PUSH1 0x2 ADD SSTORE PUSH1 0x60 DUP3 ADD MLOAD DUP2 PUSH1 0x3 ADD PUSH0 PUSH2 0x100 EXP DUP2 SLOAD DUP2 PUSH1 0xFF MUL NOT AND SWAP1 DUP4 ISZERO ISZERO MUL OR SWAP1 SSTORE POP SWAP1 POP POP PUSH1 0x1 PUSH0 DUP2 SLOAD PUSH1 0x1 ADD SWAP2 SWAP1 POP DUP2 SWAP1 SSTORE POP CALLER PUSH20 0xFFFFFFFFFFFFFFFFFFFFFFFFFFFFFFFFFFFFFFFF AND DUP2 PUSH32 0x183DD7EE8D3DB71EDACCBA8D77D2F4BA0C9CA60C557F9FD881798FCF62719D5F TIMESTAMP PUSH1 0x40 MLOAD PUSH2 0x435 SWAP2 SWAP1 PUSH2 0x87D JUMP JUMPDEST PUSH1 0x40 MLOAD DUP1 SWAP2 SUB SWAP1 LOG3 POP JUMP JUMPDEST PUSH0 PUSH0 SHL DUP2 SUB PUSH2 0x47B JUMPI PUSH1 0x40 MLOAD PUSH32 0x68E1D61B00000000000000000000000000000000000000000000000000000000 DUP2 MSTORE PUSH1 0x4 ADD PUSH1 0x40 MLOAD DUP1 SWAP2 SUB SWAP1 REVERT JUMPDEST PUSH0 PUSH0 DUP3 DUP2 MSTORE PUSH1 0x20 ADD SWAP1 DUP2 MSTORE PUSH1 0x20 ADD PUSH0 KECCAK256 PUSH1 0x3 ADD PUSH0 SWAP1 SLOAD SWAP1 PUSH2 0x100 EXP SWAP1 DIV PUSH1 0xFF AND ISZERO PUSH2 0x4DD JUMPI DUP1 PUSH1 0x40 MLOAD PUSH32 0x65FE531700000000000000000000000000000000000000000000000000000000 DUP2 MSTORE PUSH1 0x4 ADD PUSH2 0x4D4 SWAP2 SWAP1 PUSH2 0x96A JUMP JUMPDEST PUSH1 0x40 MLOAD DUP1 SWAP2 SUB SWAP1 REVERT JUMPDEST PUSH1 0x40 MLOAD DUP1 PUSH1 0x80 ADD PUSH1 0x40 MSTORE DUP1 DUP3 DUP2 MSTORE PUSH1 0x20 ADD CALLER PUSH20 0xFFFFFFFFFFFFFFFFFFFFFFFFFFFFFFFFFFFFFFFF AND DUP2 MSTORE PUSH1 0x20 ADD TIMESTAMP DUP2 MSTORE PUSH1 0x20 ADD PUSH1 0x1 ISZERO ISZERO DUP2 MSTORE POP PUSH0 PUSH0 DUP4 DUP2 MSTORE PUSH1 0x20 ADD SWAP1 DUP2 MSTORE PUSH1 0x20 ADD PUSH0 KECCAK256 PUSH0 DUP3 ADD MLOAD DUP2 PUSH0 ADD SSTORE PUSH1 0x20 DUP3 ADD MLOAD DUP2 PUSH1 0x1 ADD PUSH0 PUSH2 0x100 EXP DUP2 SLOAD DUP2 PUSH20 0xFFFFFFFFFFFFFFFFFFFFFFFFFFFFFFFFFFFFFFFF MUL NOT AND SWAP1 DUP4 PUSH20 0xFFFFFFFFFFFFFFFFFFFFFFFFFFFFFFFFFFFFFFFF AND MUL OR SWAP1 SSTORE POP PUSH1 0x40 DUP3 ADD MLOAD DUP2 PUSH1 0x2 ADD SSTORE PUSH1 0x60 DUP3 ADD MLOAD DUP2 PUSH1 0x3 ADD PUSH0 PUSH2 0x100 EXP DUP2 SLOAD DUP2 PUSH1 0xFF MUL NOT AND SWAP1 DUP4 ISZERO ISZERO MUL OR SWAP1 SSTORE POP SWAP1 POP POP PUSH1 0x1 PUSH0 DUP2 SLOAD PUSH1 0x1 ADD SWAP2 SWAP1 POP DUP2 SWAP1 SSTORE POP CALLER PUSH20 0xFFFFFFFFFFFFFFFFFFFFFFFFFFFFFFFFFFFFFFFF AND DUP2 PUSH32 0x183DD7EE8D3DB71EDACCBA8D77D2F4BA0C9CA60C557F9FD881798FCF62719D5F TIMESTAMP PUSH1 0x40 MLOAD PUSH2 0x5F7 SWAP2 SWAP1 PUSH2 0x87D JUMP JUMPDEST PUSH1 0x40 MLOAD DUP1 SWAP2 SUB SWAP1 LOG3 POP JUMP JUMPDEST PUSH1 0x1 SLOAD DUP2 JUMP JUMPDEST PUSH0 PUSH2 0x611 PUSH2 0x6BC JUMP JUMPDEST PUSH0 PUSH0 DUP5 DUP2 MSTORE PUSH1 0x20 ADD SWAP1 DUP2 MSTORE PUSH1 0x20 ADD PUSH0 KECCAK256 PUSH1 0x40 MLOAD DUP1 PUSH1 0x80 ADD PUSH1 0x40 MSTORE SWAP1 DUP2 PUSH0 DUP3 ADD SLOAD DUP2 MSTORE PUSH1 0x20 ADD PUSH1 0x1 DUP3 ADD PUSH0 SWAP1 SLOAD SWAP1 PUSH2 0x100 EXP SWAP1 DIV PUSH20 0xFFFFFFFFFFFFFFFFFFFFFFFFFFFFFFFFFFFFFFFF AND PUSH20 0xFFFFFFFFFFFFFFFFFFFFFFFFFFFFFFFFFFFFFFFF AND PUSH20 0xFFFFFFFFFFFFFFFFFFFFFFFFFFFFFFFFFFFFFFFF AND DUP2 MSTORE PUSH1 0x20 ADD PUSH1 0x2 DUP3 ADD SLOAD DUP2 MSTORE PUSH1 0x20 ADD PUSH1 0x3 DUP3 ADD PUSH0 SWAP1 SLOAD SWAP1 PUSH2 0x100 EXP SWAP1 DIV PUSH1 0xFF AND ISZERO ISZERO ISZERO ISZERO DUP2 MSTORE POP POP SWAP1 POP DUP1 PUSH1 0x60 ADD MLOAD SWAP2 POP SWAP2 POP SWAP2 JUMP JUMPDEST PUSH1 0x40 MLOAD DUP1 PUSH1 0x80 ADD PUSH1 0x40 MSTORE DUP1 PUSH0 DUP2 MSTORE PUSH1 0x20 ADD PUSH0 PUSH20 0xFFFFFFFFFFFFFFFFFFFFFFFFFFFFFFFFFFFFFFFF AND DUP2 MSTORE PUSH1 0x20 ADD PUSH0 DUP2 MSTORE PUSH1 0x20 ADD PUSH0 ISZERO ISZERO DUP2 MSTORE POP SWAP1 JUMP JUMPDEST PUSH0 PUSH0 REVERT JUMPDEST PUSH0 DUP2 SWAP1 POP SWAP2 SWAP1 POP JUMP JUMPDEST PUSH2 0x70E DUP2 PUSH2 0x6FC JUMP JUMPDEST DUP2 EQ PUSH2 0x718 JUMPI PUSH0 PUSH0 REVERT JUMPDEST POP JUMP JUMPDEST PUSH0 DUP2 CALLDATALOAD SWAP1 POP PUSH2 0x729 DUP2 PUSH2 0x705 JUMP JUMPDEST SWAP3 SWAP2 POP POP JUMP JUMPDEST PUSH0 PUSH1 0x20 DUP3 DUP5 SUB SLT ISZERO PUSH2 0x744 JUMPI PUSH2 0x743 PUSH2 0x6F8 JUMP JUMPDEST JUMPDEST PUSH0 PUSH2 0x751 DUP5 DUP3 DUP6 ADD PUSH2 0x71B JUMP JUMPDEST SWAP2 POP POP SWAP3 SWAP2 POP POP JUMP JUMPDEST PUSH2 0x763 DUP2 PUSH2 0x6FC JUMP JUMPDEST DUP3 MSTORE POP POP JUMP JUMPDEST PUSH0 PUSH20 0xFFFFFFFFFFFFFFFFFFFFFFFFFFFFFFFFFFFFFFFF DUP3 AND SWAP1 POP SWAP2 SWAP1 POP JUMP JUMPDEST PUSH0 PUSH2 0x792 DUP3 PUSH2 0x769 JUMP JUMPDEST SWAP1 POP SWAP2 SWAP1 POP JUMP JUMPDEST PUSH2 0x7A2 DUP2 PUSH2 0x788 JUMP JUMPDEST DUP3 MSTORE POP POP JUMP JUMPDEST PUSH0 DUP2 SWAP1 POP SWAP2 SWAP1 POP JUMP JUMPDEST PUSH2 0x7BA DUP2 PUSH2 0x7A8 JUMP JUMPDEST DUP3 MSTORE POP POP JUMP JUMPDEST PUSH0 DUP2 ISZERO ISZERO SWAP1 POP SWAP2 SWAP1 POP JUMP JUMPDEST PUSH2 0x7D4 DUP2 PUSH2 0x7C0 JUMP JUMPDEST DUP3 MSTORE POP POP JUMP JUMPDEST PUSH1 0x80 DUP3 ADD PUSH0 DUP3 ADD MLOAD PUSH2 0x7EE PUSH0 DUP6 ADD DUP3 PUSH2 0x75A JUMP JUMPDEST POP PUSH1 0x20 DUP3 ADD MLOAD PUSH2 0x801 PUSH1 0x20 DUP6 ADD DUP3 PUSH2 0x799 JUMP JUMPDEST POP PUSH1 0x40 DUP3 ADD MLOAD PUSH2 0x814 PUSH1 0x40 DUP6 ADD DUP3 PUSH2 0x7B1 JUMP JUMPDEST POP PUSH1 0x60 DUP3 ADD MLOAD PUSH2 0x827 PUSH1 0x60 DUP6 ADD DUP3 PUSH2 0x7CB JUMP JUMPDEST POP POP POP POP JUMP JUMPDEST PUSH0 PUSH1 0x80 DUP3 ADD SWAP1 POP PUSH2 0x840 PUSH0 DUP4 ADD DUP5 PUSH2 0x7DA JUMP JUMPDEST SWAP3 SWAP2 POP POP JUMP JUMPDEST PUSH2 0x84F DUP2 PUSH2 0x7C0 JUMP JUMPDEST DUP3 MSTORE POP POP JUMP JUMPDEST PUSH0 PUSH1 0x20 DUP3 ADD SWAP1 POP PUSH2 0x868 PUSH0 DUP4 ADD DUP5 PUSH2 0x846 JUMP JUMPDEST SWAP3 SWAP2 POP POP JUMP JUMPDEST PUSH2 0x877 DUP2 PUSH2 0x7A8 JUMP JUMPDEST DUP3 MSTORE POP POP JUMP JUMPDEST PUSH0 PUSH1 0x20 DUP3 ADD SWAP1 POP PUSH2 0x890 PUSH0 DUP4 ADD DUP5 PUSH2 0x86E JUMP JUMPDEST SWAP3 SWAP2 POP POP JUMP JUMPDEST PUSH0 PUSH1 0xA0 DUP3 ADD SWAP1 POP PUSH2 0x8A9 PUSH0 DUP4 ADD DUP6 PUSH2 0x846 JUMP JUMPDEST PUSH2 0x8B6 PUSH1 0x20 DUP4 ADD DUP5 PUSH2 0x7DA JUMP JUMPDEST SWAP4 SWAP3 POP POP POP JUMP JUMPDEST PUSH0 DUP3 DUP3 MSTORE PUSH1 0x20 DUP3 ADD SWAP1 POP SWAP3 SWAP2 POP POP JUMP JUMPDEST PUSH32 0x50726F76656E616E636552656769737472793A2068617368206E6F7420726567 PUSH0 DUP3 ADD MSTORE PUSH32 0x6973746572656400000000000000000000000000000000000000000000000000 PUSH1 0x20 DUP3 ADD MSTORE POP JUMP JUMPDEST PUSH0 PUSH2 0x927 PUSH1 0x27 DUP4 PUSH2 0x8BD JUMP JUMPDEST SWAP2 POP PUSH2 0x932 DUP3 PUSH2 0x8CD JUMP JUMPDEST PUSH1 0x40 DUP3 ADD SWAP1 POP SWAP2 SWAP1 POP JUMP JUMPDEST PUSH0 PUSH1 0x20 DUP3 ADD SWAP1 POP DUP2 DUP2 SUB PUSH0 DUP4 ADD MSTORE PUSH2 0x954 DUP2 PUSH2 0x91B JUMP JUMPDEST SWAP1 POP SWAP2 SWAP1 POP JUMP JUMPDEST PUSH2 0x964 DUP2 PUSH2 0x6FC JUMP JUMPDEST DUP3 MSTORE POP POP JUMP JUMPDEST PUSH0 PUSH1 0x20 DUP3 ADD SWAP1 POP PUSH2 0x97D PUSH0 DUP4 ADD DUP5 PUSH2 0x95B JUMP JUMPDEST SWAP3 SWAP2 POP POP JUMP INVALID LOG2 PUSH5 0x6970667358 0x22 SLT KECCAK256 0xA6 DUP1 0xCD SHL 0x29 CREATE 0xFC 0xDE 0xD8 0xB7 DUP7 0xA5 0xBC 0xBA PUSH14 0x3572C7E4897B0F959C70F452261F LOG0 0xDA EXTCALL PUSH5 0x736F6C6343 STOP ADDMOD 0x1E STOP CALLER "
				},
				"gasEstimates": {
					"creation": {
						"codeDepositCost": "497800",
						"executionCost": "528",
						"totalCost": "498328"
					},
					"external": {
						"anchorHash(bytes32)": "infinite",
						"getRecord(bytes32)": "infinite",
						"isRegistered(bytes32)": "2815",
						"registerAsset(bytes32)": "infinite",
						"totalRegistered()": "2491",
						"verifyAsset(bytes32)": "infinite"
					}
				},
				"methodIdentifiers": {
					"anchorHash(bytes32)": "92677c69",
					"getRecord(bytes32)": "213681cd",
					"isRegistered(bytes32)": "27258b22",
					"registerAsset(bytes32)": "5b01afb5",
					"totalRegistered()": "927416c0",
					"verifyAsset(bytes32)": "fb4c7bdb"
				}
			},
			"storageLayout": {
				"storage": [
					{
						"astId": 18,
						"contract": "ProvenanceRegistry.sol:ProvenanceRegistry",
						"label": "_registry",
						"offset": 0,
						"slot": "0",
						"type": "t_mapping(t_bytes32,t_struct(ProvenanceRecord)12_storage)"
					},
					{
						"astId": 21,
						"contract": "ProvenanceRegistry.sol:ProvenanceRegistry",
						"label": "totalRegistered",
						"offset": 0,
						"slot": "1",
						"type": "t_uint256"
					}
				],
				"types": {
					"t_address": {
						"encoding": "inplace",
						"label": "address",
						"numberOfBytes": "20"
					},
					"t_bool": {
						"encoding": "inplace",
						"label": "bool",
						"numberOfBytes": "1"
					},
					"t_bytes32": {
						"encoding": "inplace",
						"label": "bytes32",
						"numberOfBytes": "32"
					},
					"t_mapping(t_bytes32,t_struct(ProvenanceRecord)12_storage)": {
						"encoding": "mapping",
						"key": "t_bytes32",
						"label": "mapping(bytes32 => struct ProvenanceRegistry.ProvenanceRecord)",
						"numberOfBytes": "32",
						"value": "t_struct(ProvenanceRecord)12_storage"
					},
					"t_struct(ProvenanceRecord)12_storage": {
						"encoding": "inplace",
						"label": "struct ProvenanceRegistry.ProvenanceRecord",
						"members": [
							{
								"astId": 5,
								"contract": "ProvenanceRegistry.sol:ProvenanceRegistry",
								"label": "contentHash",
								"offset": 0,
								"slot": "0",
								"type": "t_bytes32"
							},
							{
								"astId": 7,
								"contract": "ProvenanceRegistry.sol:ProvenanceRegistry",
								"label": "registeredBy",
								"offset": 0,
								"slot": "1",
								"type": "t_address"
							},
							{
								"astId": 9,
								"contract": "ProvenanceRegistry.sol:ProvenanceRegistry",
								"label": "timestamp",
								"offset": 0,
								"slot": "2",
								"type": "t_uint256"
							},
							{
								"astId": 11,
								"contract": "ProvenanceRegistry.sol:ProvenanceRegistry",
								"label": "exists",
								"offset": 0,
								"slot": "3",
								"type": "t_bool"
							}
						],
						"numberOfBytes": "128"
					},
					"t_uint256": {
						"encoding": "inplace",
						"label": "uint256",
						"numberOfBytes": "32"
					}
				}
			},
			"userdoc": {
				"errors": {
					"HashAlreadyRegistered(bytes32)": [
						{
							"notice": "Thrown when attempting to anchor a hash that is already registered."
						}
					],
					"InvalidContentHash()": [
						{
							"notice": "Thrown when a zero hash is passed to anchorHash()."
						}
					]
				},
				"events": {
					"AssetRegistered(bytes32,address,uint256)": {
						"notice": "Emitted when a new content hash is anchored for the first time."
					},
					"AssetVerified(bytes32,bool,address)": {
						"notice": "Emitted on each call to verifyAsset(), whether or not it succeeds. Useful for building an off-chain audit trail of verification attempts."
					}
				},
				"kind": "user",
				"methods": {
					"anchorHash(bytes32)": {
						"notice": "Anchor a SHA-256 content hash on-chain, permanently recording         the caller as the originator of the content at this block timestamp."
					},
					"getRecord(bytes32)": {
						"notice": "Returns the full provenance record for a given hash.         Reverts if the hash is not registered (use isRegistered() first         if you need a non-reverting check)."
					},
					"isRegistered(bytes32)": {
						"notice": "Quick boolean check — does this hash exist in the registry?"
					},
					"registerAsset(bytes32)": {
						"notice": "Alias for anchorHash(). Provided for semantic clarity —         \"register\" communicates intent at the product layer."
					},
					"totalRegistered()": {
						"notice": "Total number of unique content hashes registered. Useful for dashboard statistics without needing to iterate the mapping."
					},
					"verifyAsset(bytes32)": {
						"notice": "Verify whether a content hash has been registered, and return         its provenance metadata if found."
					}
				},
				"notice": "On-chain registry for digital content provenance on Monad Testnet. HOW IT WORKS:   1. When a user registers an image via POST /api/register, the backend      computes a SHA-256 hash of the raw file bytes.   2. After the Supabase record is saved, the frontend calls anchorHash()      with that hash to write an immutable, timestamped record on-chain.   3. During verification, verifyAsset() is called to confirm the hash      exists in the registry and return the original anchor metadata. DESIGN PRINCIPLES:   - Simplicity first: no access control beyond ownership of the anchor.   - Immutable: anchors cannot be modified or deleted after registration.   - Gas-efficient: uses a mapping for O(1) lookup.   - Event-driven: all writes emit events for off-chain indexing.",
				"version": 1
			}
		}
	}
}